:020000040800F2
:10000000F8050020C90000089B200008992000087E
:1000100000000000000000000000000000000000E0
:10002000000000000000000000000000DB210008CC
:100030000000000000000000D9210008DD210008B8
:10004000DB00000800000000DB000008DB00000807
:10005000DB000008DB000008DB000008DB00000814
:10006000000000002D0B0008DB000008DB0000088A
:100070007D070008DB000008DB000008000000002E
:10008000DB000008DB00000800000000ED22000893
:10009000DB000008DB000008DB000008DB000008D4
:1000A000DB000008DB000008DB000008DB000008C4
:1000B000DB0000080348854600F0CCFA0048004702
:1000C00019320008F805002004488047044800471A
:1000D000FEE7FEE7FEE7FEE7FEE7FEE75122000847
:1000E000B500000830B50B4601460020202201244F
:1000F00009E00D46D5409D4205D31D469540491B5C
:100100002546954040191546521E002DF1DC30BDA4
:1001100010B5202A04DB0846203AD040002110BD4B
:100120000B46D340D0402024A21A914008431946E0
:1001300010BD70B502464A40D50F40004A00ED0799
:1001400040085208002814D0002A12D0C40DD30D44
:1001500041020120C0055202490A520AE41A091854
:1001600012187D34914201D3641C00E04900002C38
:1001700001DA002070BD0023914201D3891A0343A4
:10018000400849000028F7D100290AD0914202D145
:100190000121C90705E0914201D2012101E00121BD
:1001A000C943E005C018401900F04CF870BD10B507
:1001B00000229623114600F04DF810BD4100400288
:1001C0000122400AD205090E80187F2901DA002099
:1001D0007047962903DC9622511AC8407047963919
:1001E00088407047F0B51FB40646002082B005462F
:1001F0004024019100901BE0019922460F463046B1
:10020000FFF786FF049A059B801A994110D3104688
:100210001946224600F030FA361A8F4101972246DD
:1002200001200021009F00F027FA38184D4100906E
:100230002046641E0028DFDC019B009829463246D8
:1002400007B0F0BD002904DA401C490001D1400884
:100250004000704770B40024050C05D11024000440
:1002600002D1002921D01124050E01D10002083449
:10027000050F01D10001241D850F01D18000A41CB0
:10028000002801DB4000641C002908D020252E1B1B
:100290000D46F540A14000D0012129430843010645
:1002A0001B1B000ADB1D02D5002070BC7047DB055C
:1002B000181880180029F8DA401C4900F5D170BCE4
:1002C0004008400070470000F0B507460846584017
:1002D00087B0C00F049048000E46590040084908F6
:1002E000BC1A884105D2384631461E4617460B4691
:1002F00002465800400810434CD0300D0390400592
:100300005900400D490D0590401A0290402872DABC
:1003100018030121000B090508430190049800927D
:10032000002805D001995242002088410092019096
:10033000029840210A1A0199009800F09DF905469B
:100340000C466B4607CB00F0A7F9C0197141039A20
:100350000E0D0023D71756401A467A40164344D054
:10036000049A002A2DD0029A012A039A15DC12055C
:10037000C01A914101263605001C7141D20F059E1D
:10038000D2070093019202962A46234600F0A4F970
:1003900007B0F0BD38463146FAE71605224A0F4647
:1003A000B218C01AB74101210905001C4F410018BD
:1003B0007F41114618187941E20F10436D196441CD
:1003C00013E0E2076D0815436408C2071443039A5B
:1003D00001261205C01A91413605001C7141CE0755
:1003E000400830434908C01851412A46234600F0CE
:1003F00066F9CDE7FFE7049801224000C117121A01
:1004000000238B4104983146C417381AA141EEE706
:1004100030B40124E407634030BC55E730B4012414
:10042000E407614030BC4FE70000E0FFF0B51FB4C7
:1004300088B00B990998002448400999C00F4900D9
:1004400049080991C0070B990090490049080B9190
:1004500009990898A64608431CD00B990A980843A6
:1004600018D0099801244000420D4800410D099818
:1004700024050003000B204309900B980003000B98
:1004800020430B9050181C4940180022019014463C
:10049000104605E0002001460DB0F0BD032801DA4A
:1004A000034600E003239C46C11A0AAE0AE05F003F
:1004B00008ADED5B4F00F75B7D430027AA187C4138
:1004C000491C5B1E6145F2DD410004AB5A52210418
:1004D000120C0A43240C401C0828DFDB0198029010
:1004E0000099704601910090059B049A079906981F
:1004F00000F0F2F8D0E700000DFCFFFFF0B50C466D
:100500005C4085B0E40FE40703944C0000266408C7
:1005100059009446490802460296224321D0624679
:100520000A431ED06200570D4A000E032303550DE7
:10053000012402462C492405781B1B0B360B40185E
:1005400023432643614600901C46501AB44103D30E
:100550000098401C009002E0921800985B4100282F
:1005600003DA0020014605B0F0BD00200121090595
:100570000746864611E064461D46141BB54106D366
:100580006546521BB341744607430C43A646CD074C
:1005900040084908284392185B4105460D43EAD1BB
:1005A0001046184313D06046194650407140084326
:1005B00006D06046101AB34106D20122002306E09D
:1005C00000220123DB0702E00122D24353100098EE
:1005D00074460105381C6141029C039D0019694164
:1005E00000F06DF8BFE70000FD0300004A000903BA
:1005F0000123090B1B0519430A4B10B5520D9A42F2
:1006000002DA0020014610BD064B34339A4203DC67
:100610009A1AFFF77DFD10BD034BD21800F02CF89D
:1006200010BD0000FF030000CDFBFFFF10B5002947
:1006300004DB0124E40740428C412146002B04DB0B
:100640001C460123DB075242A341994200D190424C
:1006500010BD0000064C0125064E05E0E36807CCFE
:100660002B430C3C98471034B442F7D3FFF726FDD8
:100670009C320008BC32000810B5202A04DB014679
:10068000203A9140002010BD914020239C1A03463F
:10069000E3401943904010BD10B5202A06DBCB176C
:1006A0000846203A1041C1170B4306E00B461341A0
:1006B000D0402024A21A91400843194610BD10B51D
:1006C000002B08DA0024401C614192185B411A4358
:1006D00001D14008400010BDF0B51FB482B00546FE
:1006E0000C0003D0084602F00DF902E002F00AF90E
:1006F00020300246009021462846FFF7BDFF049BAC
:10070000059A04460F4618431143084314D018466F
:1007100010431BD0009840210A1A18460599FFF78C
:10072000F7FC05460E46009A05990498FFF7A4FFCA
:10073000084305D0012004E02046394607B0F0BD4B
:100740000020C11705430E432C43374300990E98F0
:100750006305401A7905E40A00220C43FD0A0A30B9
:1007600002D500200146E9E70105101969410C9CFA
:100770000D9D00196941FFF7A2FFDFE710B50248A0
:1007800000F035FB10BD00009C01002070B5044650
:1007900000688168490720D581681026490700292B
:1007A00005DA8168890702D481683143816000F0ED
:1007B000CFFE05460DE000F0CBFE401B022808D915
:1007C000606C30436064A06C01210843A06408465B
:1007D00070BD206880684007EDD4002070BD000027
:1007E000FEB5002569460D808D801F4A0121144603
:1007F000203C64270E03002802D001281FD121E0ED
:10080000108840084000A080217000F069F921891B
:100810001EE06846058020E069460888FFF7C7FCAF
:100820001249FFF786FCFFF7C9FC69468880888873
:10083000002800D18D808888642800D38F80684686
:100840008088FEBD5088E080617000F023F96189E6
:100850006846018000880028DBD068460088B042E6
:10086000DAD368460680D7E728000020000020423F
:1008700010B50146406A426C50231A420AD1416CBD
:1008800001225202114341640168CA681205920FA5
:1008900005D020E0C06B026B0846904710BD026A8D
:1008A000002A18D10A68120715D58A685307012251
:1008B000002B09DB4B680C24A3434B60416C1302F3
:1008C00099431143416406E0416C2023194341647C
:1008D000816C1143816400F037FA10BD10B5406A95
:1008E000416C402211434164816C042211438164B4
:1008F00000F07CFA10BD10B5406A00F026FA10BD79
:1009000070B5274C25482060204600F01FFA0028CB
:1009100000D0FEE700250120A5608007E56060604B
:100920002246012008211032E56123C2FF216562C1
:10093000C231E562A16220620526303461C41848E4
:1009400000F0BEFA002800D0FEE7154800F01CF9C0
:10095000002800D0FEE7124C04204C3420608002B6
:10096000606021460E4800F067F9002800D0FEE7DD
:100970000B490B484C31266000F05EF9002800D08E
:10098000FEE702220749064800F0B2FB002800D02B
:10099000FEE7044820388570C57070BD0024014012
:1009A0009C01002028000020F8B5044600688168FA
:1009B0008907890F012928D10168C90702D1C168B7
:1009C000090422D58168052211401025012601293C
:1009D0000FD18168022211438160216803200860E1
:1009E00000F0B6FD07460CE000F0B2FDC01B022887
:1009F00007D9606C28436064A06C3043A064012078
:100A0000F8BD20688068C007EED10020F8BD000066
:100A1000F8B5044600200090206881688907890F96
:100A2000012905D10168C9072CD1C168090429D45D
:100A30008168154A102611400125002915D18168C9
:100A400029438160124811490068FFF74BFB00E021
:100A5000401E00900028FBD100F07AFD07460CE014
:100A600000F076FDC01B022807D9606C304360643B
:100A7000A06C2843A0640120F8BD20680068C04332
:100A8000C007EDD10020F8BD1700008040420F00E4
:100A90000000002010B511494A78002A0FD0002329
:100AA0004B70CC780A46D269002C09D0012C06D1B3
:100AB0004B89D21A1018C8610003000C488110BD80
:100AC0001218CA61C889441CCC810F28F7D31003BF
:100AD000CB81000C48810120C87010BD08000020A7
:100AE00010B511490A78002A0FD000230B708C78BA
:100AF0000A469269002C09D0012C06D10B89D21A22
:100B0000101888610003000C088110BD12188A615A
:100B1000088A441C0C820F28F7D310030B82000CA8
:100B200008810120887010BD0800002010B502481F
:100B3000C06B00F04EFB10BD9C01002010B50446B8
:100B40000068054940181421FFF7CCFA80002064A2
:100B50000248E06310BD0000F8FFFDBF0000024046
:100B600030B5056C0124AC40C56B6C6004686360F3
:100B70004368102B036803D099600068C26030BDE1
:100B80009A600068C16030BDF8B50546044640353E
:100B900028780026012808D0012028702068816864
:100BA0008907890F012908D101E00220F8BD0168F9
:100BB000C90738D1C168090435D4616CFF220132FC
:100BC0009143022211436164C1688907890F009132
:100BD000C16889088900C160206881689207114353
:100BE000816000F0B5FC07460EE000F0B1FCC01BD0
:100BF000022809D9606C02218843102108436064EF
:100C0000002028700120F8BD206880680028ECDBF7
:100C10002068C168009A1143C160606C8008800040
:100C2000401C606404E0606C20210843606401267D
:100C3000002028703046F8BDF8B500250446403441
:100C400000952278012A39D00122227003689E681B
:100C5000760767D4384F4E68BE424DD09E6A0F78F3
:100C6000BA4016439E620123826B1B079A421FD033
:100C7000012A1DD0022A1BD0032A19D0042A17D01A
:100C8000052A15D0062A13D0072A11D002688B68CE
:100C900056697607760FB3420AD05369DB08DB004A
:100CA0005361006842690B7A5B075B0F1A4342612C
:100CB0000A68102A04D0112A02D038E00220F8BDB8
:100CC0001E488368102A07D00122920513438360CF
:100CD0000868102803D02AE00122D205F6E7194857
:100CE00017490068FFF7FEF90A21484300E0401E5B
:100CF00000900028FBD11AE0986A0E78B240904329
:100D000098620968102901D0112910D10B48826816
:100D1000102904D0012189058A43826007E001215E
:100D2000C905F9E7416C20221143416401250020E7
:100D300020702846F8BD0000011000000027014087
:100D400040420F00000000207047704770B504005B
:100D50003BD0606C0221084360642046FFF716FD1B
:100D600000260546002832D0012D2AD021684A6885
:100D70009F2082434A60216808602068C168184A41
:100D80001140C160206801698900890801612068FB
:100D90004169C908C90041612068016A114A1140CE
:100DA00001622068816AC90CC90481620E488168A9
:100DB0000322920591438160204600F03DF9A6642C
:100DC000666440342670284670BD012070BD204600
:100DD000FFF7EAFD05460128F3D001206064C5E76E
:100DE00000023E8300F000F000270140704770B51C
:100DF000044600680168490702D54168490705D4DF
:100E00000168090730D5416809072DD5616CC9060D
:100E100004D4616C0122520211436164C1680C2543
:100E20000905890F00291AD1216A002917D1016803
:100E3000090714D581684A070121002A08DB4268A6
:100E4000AA434260606C0A0290430843606406E073
:100E5000606C202210436064A06C0843A0642046AC
:100E6000FFF772FF206805602068016809060DD54C
:100E7000406800060AD5606C0121090408436064DB
:100E8000204600F0D7F821688020086020680168BB
:100E9000C90613D54168C90610D5616B1025012913
:100EA00002D0C168C90707D0A16C02221143A16416
:100EB00005602046FFF79AFF2068056070BD0000BE
:100EC000F8B500250446002803D0606C002802D045
:100ED00008E00120F8BD0020A0644021085520460C
:100EE00000F0C2F8606C1022104270D12068816856
:100EF00049076CD4616C130199430223194361645F
:100F000081688907890F012905D10168C9070FD1B7
:100F1000C16809040CD4C1681826B143A6683143DE
:100F2000C1602068016966688900890831430161F0
:100F30002068C1683D4E3140C160A069E16980030D
:100F4000C9030843216A4E033043666B012E02D069
:100F50000126360300E000263043E6683043266968
:100F6000022E08D000263043266B76003043666A96
:100F7000012E02D00BE00426F5E7002928D0616C91
:100F8000202631436164A16C01263143A164A16A2A
:100F90000E46FF3EC23E02D0E66A31430843216856
:100FA000CE680643CE600126A16B3607B14213D04E
:100FB000012911D002290FD003290DD004290BD00B
:100FC000052909D0062907D0072905D010E028E017
:100FD000012109040843DAE721684E69F608F600A2
:100FE0004E6121684E69278F7F077F0F3E434E6118
:100FF0002168C9680E4E3140814207D10020A064AB
:10100000606C80088000401C606408E0606C98435D
:1010100010436064A06C01210843A06401252846A8
:10102000F8BD606C10436064F8E700001902FEFF31
:10103000E7FF3F837047000010B50A490446C868BF
:101040004A151043C860C8689043C86088699043D7
:10105000886109201021C00600F06CF9E06B00F0F7
:1010600097F810BD0010024070B51E4986B08A691D
:101070000546481502438A618A69024005924A6919
:10108000000202434A614A6902400592486901220E
:1010900010434861486900261040059030200090B8
:1010A00003200190092069460296C00600F0ACF9C1
:1010B0000D480E4C41C48020266060604000A06056
:1010C0008000E06020202061000260610748083C49
:1010D00000F05EF8204600F0CBF8EC63656206B0E5
:1010E00070BD0000001002400800024030000020E7
:1010F000F7B5044600680025806840073DD42646C1
:101100004036307801280AD001273770E06901287D
:1011100007D02046FFF77CFC050002D02EE002201D
:10112000FEBD606C16490840FF2101310843606430
:101130000020A0643070E16B12488862E16B1248B5
:10114000C862E16B1148086321681C2008602068B0
:1011500041681022114341602068C1683943C16071
:101160002168E06B4031029B019A00F0ADF82068E5
:10117000816804221143816000E002252846FEBDFB
:10118000FEF1FFFF71080008F7080008DD080008FD
:1011900070B504001BD0206801684908490001604F
:1011A000206800250560206845602068856020680B
:1011B000C5602046FFF7C2FC216C01208840E16B2E
:1011C0004860A563203465702570002070BD012043
:1011D00070BDF0B4C16B0D6801680C680422066C28
:1011E0001346B3402B420DD063070BD50B689B060B
:1011F00002D40B6893430B60016C8A40C16B4A6058
:10120000C16A19E00227B74002462F40012320326D
:10121000002F15D0A70713D50C68A40604D40C68BA
:101220000A25AC430C605370036C02219940C36BD8
:10123000596000211170816A002916D0F0BC08475E
:101240000827B7402F4210D024070ED50C680E2572
:10125000AC430C60046C1946A140C46B61608363AD
:10126000537000211170016BE6E7F0BC704700007D
:1012700070B5040024D00220214620310D4648706C
:10128000226811680F48A368014060682669184306
:10129000E3683343184363691843A3691843E36958
:1012A0001843084310602046FFF748FC0020A06266
:1012B000E06220636063A06301216970287070BDE3
:1012C000012070BD0FC0FFFFF8B504468C462030EA
:1012D00001780025012909D00126067041780027F0
:1012E000012905D0077002252846F8BD0220F8BD67
:1012F00002214170A7632068016849084900016024
:1013000061462046FFF72CFCE06A0028206801684F
:1013100002D00E22114306E00A2211430160206828
:101320000168042291430160206801683143016033
:10133000DAE70000F0B5002358E001229A40144695
:101340000A4052D006685F000325BD40AE43AC465C
:101350000660DD08AD002D182E6AAE465D07EF0E63
:101360000F25BD40AE4375462E6286686546AE4386
:1013700086604568A5434560C4686546AC43C46063
:101380009D081C4CAD002D19AF689C07260F0F243B
:10139000B440A4463C400927FF06B84201D10027CB
:1013A0000FE0154FB84201D101270AE0134FB842B0
:1013B00001D1022705E0124FB84201D1032700E016
:1013C0000527B740A74210D1AE686446A643AE6079
:1013D0000C4C256895432560656895436560A56854
:1013E0009543A560E5689543E5605B1C0A46DA40D5
:1013F000A3D1F0BD000001400004004800080048EF
:10140000000C004800040140F8B500238DE00124E1
:101410009C40A44622407DD04C68022C01D0122C66
:101420000CD1DC08A40027183C6A5D07ED0E0F26DE
:10143000AE40B4430E69AE4026433E6205685E008E
:101440000324B4400F79A543BF07BF0FB7402F4314
:1014500007604D68012D05D0022D03D0112D01D05C
:10146000122D0ED18568CF68A543B7402F43876002
:1014700047686546AF430D79ED06ED0F9D403D434E
:101480004560C568A5438C68B4402C43C4604C6873
:10149000E40049D5284CA56901263543A561A46916
:1014A0009D0834400094254CAD002F19BC689D0761
:1014B0002E0F0F25B540AC430925ED06A84201D1FA
:1014C00000250FE01E4DA84201D101250AE01D4D67
:1014D000A84201D1022505E01B4DA84201D10325F8
:1014E00000E00525B5402543BD60184C25684E68D1
:1014F0009543F60300D51543256065684E6895430E
:10150000B60300D515436560A5684E689543F6029D
:1015100002D500E008E01543A560E5684E689543F4
:10152000B60200D51543E5605B1C0A681446DC4032
:1015300000D06CE7F8BD0000001002400000014040
:101540000004004800080048000C00480004014066
:10155000014800687047000004000020024801684C
:10156000491C0160704700000400002010B50648C7
:101570000168102211430160032000F007F800F019
:1015800016F8002010BD00000020024010B50446EF
:1015900000F0B2F87D21C900FEF7A4FD00F0B4FA16
:1015A00000222146501E00F00DF8002010BD7047AB
:1015B000C106C90E0120884001490860704700003B
:1015C00000E100E010B500F069FD10BDF8B505467A
:1015D00044480E460068C007C00FB0420AD24148D6
:1015E000016849084900314301600068C007C00F25
:1015F000B0425CD128783C4C800705D56068F0216A
:101600008843A968084360602878C0073FD06868AD
:10161000012813D02168022813D08907002946DA4F
:1016200061688908890001436160FFF791FF69687B
:10163000074601290DD0022917D024E0216889032B
:10164000ECE78901EAE7FFF783FFC11B27488142E6
:1016500017D860680007800F0128F4D117E0FFF762
:1016600077FFC11B214881420BD860680007800FBB
:101670000228F4D10BE0FFF76BFFC11B1B4881422E
:1016800001D90320F8BD60680007800FF3D1154829
:101690000168C907C90FB1420BD90168490849005F
:1016A000314301600068C007C00FB04201D0012083
:1016B000F8BD2878400706D56068072109028843ED
:1016C000E9680843606000F02DF86168084A09067F
:1016D000090F515CC840074908600320FFF756FF17
:1016E0000020F8BD002002400010024088130000D6
:1016F00036320008000000200148006870470000F2
:10170000000000200448054900684968044A49056A
:10171000490F515CC8407047000000200010024093
:101720004632000810B512A30FCB88B06C460FC428
:1017300013A30FCB0FC416494A680C20134603406D
:101740001448042B0FD0082B0DD193021B0F6C46AD
:10175000E45CC96A04AB0907090F595CD20304D5DC
:10176000FEF7C0FC604308B010BD0B486043FAE7C9
:1017700002030405060708090A0B0C0D0E0F1010D2
:101780000102030405060708090A0B0C0D0E0F10D1
:101790000010024000127A0000093D00FEB5044628
:1017A0000078D04DC00747D068680007800F012837
:1017B00007D068680007800F022809D16868C00355
:1017C00006D52868800337D5606800287ED033E0CE
:1017D000012062680004012A11D08100002A01D092
:1017E000052A10D02A6882432A6028688843286026
:1017F0006068002814D0FFF7ABFE06460CE02968AD
:1018000001432960F4E72A680A432A60F7E7FFF7F3
:101810009FFE801B64286FD828688003F7D50BE0F3
:10182000FFF796FE064604E0FFF792FE801B642851
:10183000F1D828688003F7D4207801268007002893
:101840003BDA68680007800F07D068680007800FE0
:10185000022809D16868C00306D42868800715D516
:10186000E068012832D111E0E0680028286815D02E
:1018700030432860FFF76CFE074604E0FFF768FE80
:10188000C01B0228C7D828688007F7D52868F82128
:1018900088432169C900084328600EE040084000E1
:1018A0002860FFF755FE074604E0FFF751FEC01B16
:1018B0000228B0D828688007F7D42078000724D5FC
:1018C000E0690028686A10D0304300E008E16862EF
:1018D000FFF73EFE074604E0FFF73AFEC01B022872
:1018E00099D8686A8007F7D50FE040084000686221
:1018F000FFF72EFE074605E09DE0FFF729FEC01B1F
:10190000022888D8686A8007F7D42078042740071F
:10191000002860DA00200190E869C00008D4E96975
:10192000B8060143E961E969014001200091019095
:101930006D480168C90511D4016882151143016021
:10194000FFF706FE009005E0FFF702FE0099401A3F
:10195000642870D864480068C005F5D5A0680128DF
:101960000AD0002801D0052810D0286A400840007D
:101970002862286AB84301E0286A30432862A068D8
:10198000002812D0FFF7E4FD00900AE0286A3843EF
:101990002862F1E7FFF7DCFD0099411A53488142C4
:1019A00049D8286A8007F5D50DE0FFF7D1FD0090F2
:1019B00006E0FFF7CDFD0099411A4C4881423AD824
:1019C000286A8007F5D40198002804D0E96901202D
:1019D00000078143E9612078C00635D56069012898
:1019E0000CD0401D686B23D038436863686B400897
:1019F00040006863FFF7ACFD064622E0686B3843A1
:101A00006863686B30436863FFF7A2FD064604E035
:101A1000FFF79EFD801B02285BD8686B8007F7D517
:101A2000686BF8218843A169C900084368630BE02B
:101A3000B8436863F4E74CE0FFF78AFD801B022897
:101A400047D8686B8007F7D4206A002846D06968B9
:101A50000907890F022943D0012636060228286883
:101A600005D0B0432860FFF773FD044633E0B04370
:101A70002860FFF76DFD074604E0FFF769FDC01B16
:101A8000022826D828688001F7D4E86AE16A0009AC
:101A900000010843E862616AA06A084369683D2260
:101AA0001204914308436860286830432860FFF7B8
:101AB0004FFD044604E0FFF74BFD001B022808D849
:101AC00028688001F7D509E0FFF742FD001B0228D6
:101AD00001D90320FEBD28688001F5D40020FEBD99
:101AE0000120FEBD0010024000700040881300007D
:101AF000042204490428086902D090430861704711
:101B00001043FBE700E000E0094910B5401E8842A1
:101B100001D9012010BD074C60610321081F00F0AE
:101B2000BDFA0020A06107202061002010BD000048
:101B3000FFFFFF0000E000E07047704770B5040051
:101B400005D025462035687F002802D006E0012018
:101B500070BD00202877204600F00AF80220687740
:101B6000211D206800F0CAFB01206877002070BDAD
:101B700008B50068094988420FD10948C269811532
:101B80000A43C261C0690022084000901146132038
:101B9000FFF718FD1320FFF70BFD08BD00200040E4
:101BA000001002400268D36801210B43D360006833
:101BB00002680A43026000207047704770B504460F
:101BC000006801690025C9438907002915DBC16840
:101BD000C943890711D4E91E0161012020772068DB
:101BE00080698007204602D0FFF7E7FF04E000F09D
:101BF00096F8204600F04AF9257720680169C94324
:101C0000490717D4C168C943490713D40421C943FC
:101C1000016102202077206880698005800F2046BE
:101C200002D0FFF7CAFF04E000F079F8204600F088
:101C30002DF9257720680169C943090716D4C168C1
:101C4000C943090712D40821C94301610420207740
:101C50002068C0698007204602D0FFF7AEFF04E08D
:101C600000F05DF8204600F011F925772068016941
:101C7000C943C90617D4C168C943C90613D4102182
:101C8000C9430161082020772068C0698005800F62
:101C9000204602D0FFF791FF04E000F040F8204614
:101CA00000F0F4F8257720680169C943C90708D115
:101CB000C168C943C90704D1891E0161204600F0EB
:101CC0000FF920680169C943090609D4C168C943ED
:101CD000090605D48021C94301612046FFF72CFF86
:101CE00020680169C943490609D4C168C943490646
:101CF00005D44021C9430161204600F007F920685E
:101D00000169C943890609D4C168C943890605D454
:101D10002021C94301612046FFF70FFF70BD7047C6
:101D2000F8B5064604462036307F0D4601280DD012
:101D300001203077022070770427002A08D0042A77
:101D400016D0082A2AD00C2A4DD137E00220F8BD3F
:101D5000206800F023FB206881690822114381611B
:101D600020688169B9438161206881692A6912E02C
:101D7000206800F057FB206882690121C9020A43EC
:101D80008261206881690122920291438161206809
:101D900081692A6912021143816124E0206800F000
:101DA00081FB2068C26908210A43C2612068C169B9
:101DB000B943C1612068C1692A6912E0206800F056
:101DC000B3FB2068C1690122D2021143C1612068BE
:101DD000C269012189028A43C2612068C1692A69F6
:101DE00012021143C1610120707700203077F8BDE5
:101DF00070B5040005D025462035687F002802D044
:101E000006E0012070BD00202877204600F00AF887
:101E100002206877211D206800F070FA01206877A1
:101E2000002070BD70B5174886B0C16902242143F7
:101E3000C161C16921400591426921040A4342619F
:101E400042690A400592426949000A434261406979
:101E5000002508400590C020694631C101260920AF
:101E60006946C00604960395FFF7CEFA00940295E2
:101E700069460548049603950194FFF7C5FA06B034
:101E800070BD0000001002400004004870470000D0
:101E900010B504460068012200F074FA0C4821686D
:101EA000814208D00B48814205D00B48814202D0C4
:101EB0000A48814204D1486C0122D203104348648D
:101EC00020680168012211430160002010BD00005C
:101ED000002C014000400140004401400048014006
:101EE00010B50068074988420AD1074C608A411C36
:101EF0006182142804D300206082FEF771FCA08167
:101F000010BD00000020004008000020704770B5A0
:101F1000040005D025466035687A002802D006E026
:101F2000012070BD00202872204600F027F82420F0
:101F3000687220680168490849000160204600F085
:101F400097FB0128EDD0606A002802D0204600F0FF
:101F500021FB206841680122D20291434160206840
:101F60008168082291438160206801680122114341
:101F70000160204600F073FB70BD000000B50068F2
:101F8000114987B088421CD1104842690121490497
:101F90000A43426142690A400592C2690A43C2612A
:101FA000C069084005900C2000900220019001219A
:101FB000032003900291049109206946C006FFF7AF
:101FC00023FA07B000BD00000044004000100240AA
:101FD000FFB5064604466036707A83B00D46202869
:101FE00058D1002D0CD00598002809D00120A168F7
:101FF0000003814207D12069002804D1E80702D0FC
:10200000012007B0F0BD307A012843D001203072A2
:102010000020E06621207072FFF79AFA01902746AF
:102020004037059838820598788218E0788A401EF3
:10203000788206980090002280212046019B00F0C3
:10204000AFFB002818D10120A1680003814202D112
:102050002069002812D02168287808856D1C788AAC
:102060000028E3D106980090002240212046019BE1
:1020700000F096FB002808D00320C2E728882168DA
:10208000C005C00D0885AD1CE9E720207072002056
:102090003072B6E70220B4E7FEE770478307FF22FD
:1020A000DB0E9A408907090E994000280BDA0007D9
:1020B000000F0838830808489B001818C369934329
:1020C0000B43C3617047830804489B001B181868C2
:1020D000904308431860704700ED00E000E400E022
:1020E00004486421808948430349000B0968486318
:1020F0007047000008000020B400002070B531488F
:102100002F490068FDF7EEFF2F49401E4861304916
:102110002E4A0A60486000240C618C604C612D4896
:102120008C61C8600846FFF763FE002800D0FEE718
:102130002748602140308460046101600821846187
:10214000C1604901054670221C3541612A602C613D
:10215000EC600222AC61AA60696101464460002221
:102160004038FFF7DDFD002800D0FEE718490C22BB
:1021700040311748FFF7D4FD002800D0FEE714498E
:1021800004225C3112486C60FFF7CAFD002800D0C1
:10219000FEE700210E48FFF77BFE002800D0FEE797
:1021A00004210B48FFF774FE002800D0FEE70C2145
:1021B0000748FFF76DFE002800D0FEE770BD000065
:1021C000400D030000000020080000200004004033
:1021D000B4000020E70300007047704710B5FFF718
:1021E000BDF910BD30B591B01220009001200390D0
:1021F00005901020002404900B9406900520C00444
:1022000002250A90099408956846FFF7C7FA002846
:1022100000D0FEE707200C900E9401210D950F943D
:102220000CA8FFF7D3F9002800D0FEE7FFF764FA07
:102230007D21C900FDF756FFFFF766FC0420FFF77C
:1022400057FC00221146501EFFF7BCF911B030BDFB
:10225000134801680122114301604168114A11408D
:1022600041600168104A1140016001680122920436
:102270009143016041683F22120491434160C16A69
:1022800009090901C162016BFF2214329143016304
:10229000416B49084900416300218160704700009B
:1022A000001002400CB8FF08FFFFF6FE10B50D4805
:1022B0000B4901600C49C1602F214160002101617F
:1022C000816041618161FFF739FC002800D0FEE7A1
:1022D0000448FFF767FC002800D0FEE710BD0000AF
:1022E0000020004074000020E703000010B5024801
:1022F000FFF764FC10BD000074000020F0B5026818
:102300001A4B1B4C984201D0A04203D17025AA431E
:102310004D682A43174D184E184F98420AD0A042D4
:1023200008D0174CA04205D0A84203D0B04201D03B
:10233000B84205D11446032212029443CA682243CC
:102340008024A2434C69224302608A68C2620A6800
:102350008262984205D0A84203D0B04201D0B84270
:1023600001D10969016301214161F0BD002C0140E7
:10237000000400400040014000440140004801408A
:102380000020004010B50123046A8B409C43046286
:10239000036A8A401343036210BD0000F0B5026A6D
:1023A000520852000262056A436882697024A2439F
:1023B00092080C6892001443022295438A68164ED4
:1023C0002A43144DA84207D0B04205D0134FB8425B
:1023D00002D0134FB84206D10827BA43CF6817433B
:1023E000042297433A46A84207D0B04205D00B4D8D
:1023F000A84202D00A4DA84206D103252D02AB43C4
:102400004D691D438B692B43436084614968416377
:102410000262F0BD002C0140004001400044014038
:102420000048014070B5026A10239A430262056AAF
:102430004268836973242402A3430C6824021C436A
:1024400020239D438B681B012B43124DA84208D1CA
:102450001D46CB688026B5431B012B434025AB436B
:1024600008E00D4DA84205D00C4DA84202D00C4DFD
:10247000A84208D10325AD02AA434D69AD0015431A
:102480008A6992002A4342608461496881630362D9
:1024900070BD0000002C014000400140004401409C
:1024A0000048014070B5026AFF2301339A4302627B
:1024B000056A4368C2697024A24392080C689200BE
:1024C00014430122520295438A6812022A43124D94
:1024D000A84208D11546CA68C614B54312022A4359
:1024E0000515AA4308E00D4DA84205D00C4DA842A1
:1024F00002D00C4DA84208D103252D03AB434D69F2
:102500002D011D438B691B012B434360C461496846
:10251000C163026270BD0000002C01400040014018
:10252000004401400048014030B5026A01231B030A
:102530009A430262046A4268C36973252D02AB4361
:102540000D682D021D4301235B039C438B681B0315
:1025500023430C4CA04208D00B4CA04205D00B4C9E
:10256000A04202D00A4CA04205D10124A403A243F8
:102570004C69A40122434260C56149680164036259
:1025800030BD0000002C01400040014000440140EB
:102590000048014010B5818CC90707D001684A681E
:1025A00001235B049A43836A1A434A60818C89073A
:1025B00007D501684A6801231B049A43C36A1A437A
:1025C0004A60818C490707D501684A6801239B044A
:1025D0009A43036B1A434A60818C090707D5016847
:1025E0004A680123DB039A43436B1A434A60818C98
:1025F000C90607D50268916801231B039943836BC1
:1026000019439160818C890607D501688A68012386
:102610005B039A43C36B1A438A60818C490612D5C7
:1026200003685A6801210905046C8A4322435A60F1
:10263000026C8A4207D10268516803235B05994303
:10264000436C19435160818C090607D501684A68BB
:102650000123DB04806C9A4302434A6010BD0021D1
:10266000C166202260304272827201720846704751
:10267000F8B504462369A268E5691A436369102026
:102680002B43002125681A432B680E463E4F3B40E2
:1026900013432B6023685A6803252D03AA43E5687A
:1026A0002A435A60236AA26925681A43AB680B273C
:1026B0003F02BB431343AB60344A2568954210D1B7
:1026C000334A126B9207920F0ED0012A05D0022ACC
:1026D00005D0032A09D1022007E0042005E00820E4
:1026E00003E02C4A954200D100200122E369D20385
:1026F000934224D100280CD002280DD0042813D0F6
:10270000082817D001260A0912010807400F1043B4
:102710002FE0FEF7F7FF09E061681F4A48088018BC
:10272000FDF7E0FC81B2EEE7FEF7FCFF61684000D8
:102730004A08F4E76168012248081204EFE700281C
:1027400008D0022809D004280BD0082814D001266C
:102750003046F8BDFEF7D6FF05E061680F4A48082D
:102760000CE0FEF7DFFF61684A088018FDF7BAFC4D
:1027700080B22168C860EBE7616848088018FDF7FF
:10278000B1FC80B2E860E3E7F369FFFF0038014085
:1027900000100240004400400024F40000127A00BF
:1027A000FFB581B017460E4604460A9D1DE0681C21
:1027B0001BD0002D05D0FEF7CBFE0499401AA8428D
:1027C00013D920680168FF22A1329143016020687B
:1027D0008168490849008160202060346072A072DD
:1027E00000202072032005B0F0BD2068C16930468A
:1027F000884304D00020B842D9D00020F3E701205C
:10280000F9E7000010B5184816490160E1214902B6
:10281000416000218160C16001610C2281614261DF
:10282000C161FFF774FB002800D0FEE70F4800F0FD
:1028300059F8FEF777FF01460DA000F053F8FEF7B8
:102840005BFF014612A000F04DF8FEF75BFF01466A
:1028500016A000F047F81C4801681CA000F042F8E0
:1028600010BD0000004400402C0100205032000840
:1028700048414C5F5243435F476574537973436CDF
:102880006F636B46726571203D2025640D0A000060
:1028900048414C5F5243435F47657448434C4B4645
:1028A000726571203D2025640D0A000048414C5F8F
:1028B0005243435F47657450434C4B3146726571D8
:1028C000203D2025640D0A00000000205379737418
:1028D000656D436F7265436C6F636B203D202564AB
:1028E0000D0A00000FB410B503A9044B044A029866
:1028F00000F0E8F810BC08BC04B01847FD3100082F
:102900002C0000202021020C01D010211046020AC8
:1029100001D010460839020901D01046091F82086B
:1029200001D01046891E420801D0881E7047081A3F
:10293000704702E008C8121F08C1002AFAD1704788
:102940007047002001E001C1121F002AFBD170472F
:10295000F0B51FB486B00998089A030D0021024310
:1029600014D05148514A18185043051411980128A1
:1029700010981AD0281A401C00264D4F4D49009639
:1029800001910490002812DA444211E011980124C8
:1029900049A3012801D11098C1430698119A846077
:1029A0000360C26041600BB0F0BD4042E4E7044602
:1029B000210500203F4A001C51410391029012E082
:1029C000E00707D032463B4601990098FDF72EFDFF
:1029D0000191009032463B4610461946FDF726FD10
:1029E00006460F466410002CEAD10498039B002889
:1029F000029A0999089806DAFDF718FD019B009ADA
:102A0000FDF714FD05E0FDF779FD019B009AFDF748
:102A100075FD04460E460022284BFDF707FE03D83D
:102A20000020C043014607E00022254B20463146E6
:102A3000FDF74AFCFDF7DAFD102409E0002C0ADB63
:102A40000A220023FDF7CEFB079B30321A55641E85
:102A500002460A43F2D11122641C079B121B1C1967
:102A6000119B012B03D0012308430ED10AE0084338
:102A700004D0112010900020119077E71098151ABB
:102A80006D1E0BE01098824202DD00236D1C03E0F6
:102A9000824201DA00236D1E002BEED006981199B8
:102AA0008260C16030C07EE701FCFFFF104D000076
:102AB000000014400000F03F300000000000F04330
:102AC0000000E03FFFB597B00646002518E2252834
:102AD00077D100242746FD49049400E00443761C86
:102AE00032780120203A90400842F7D130782A28E5
:102AF0000ED00222307801463039092916D80499BF
:102B00000A235943303940181443761C0490F1E7E6
:102B1000189802C804911890002904DA0120400393
:102B200004434842049002200443761C30782E2847
:102B300014D1042004437078761C2A2809D11898EF
:102B4000761C80C8189009E00A214F43303FC7190E
:102B5000761C3078014630390929F5D930786C284F
:102B600010D006DC4C281AD068280ED06A2817D15D
:102B700004E0742813D07A2812D110E00120400517
:102B800004430CE00121090501E0032109050C4380
:102B90007178814203D1012000052418761C761C2F
:102BA0003078119066280BD013DC58287DD009DCD2
:102BB00000287BD04528F6D04628F4D047281AD1E3
:102BC000A5E118E0632835D0642870D0652812D1BB
:102BD0009DE170286CD008DC6728F1D069287BD093
:102BE0006E280DD06F2806D1BAE073282ED0752834
:102BF00071D0782859D01A9A199990476D1C7EE1A6
:102C00006002400F022809D003280DD0042818982C
:102C100001680DD00D60001D189070E11898EA173A
:102C200001680D604A60F6E7189801680D80F2E7C8
:102C30000D70F0E718986A4601781172001D18901F
:102C40000020507202A80090012005E0189802C8E8
:102C5000189000200091C04361070DD5002101E0CC
:102C60000199491C0191B94212DA8142F8DB009ABC
:102C7000515C0029F4D10BE0002101E00199491CCD
:102C800001918142FADB019A0099895C0029F5D112
:102C9000019904981A9B471A21463846199A00F060
:102CA00097FA0199401945180BE04FE02CE113E029
:102CB0004EE0009800990078491C00911A9A1999E1
:102CC00090470198401E0190401CF2D121463846A1
:102CD0001A9B199A10E137E00A2000210090019117
:102CE0006002410F022907D0189A01CA1892C21730
:102CF0009446032908D00AE01898C01DC108C900ED
:102D000005C91891944607E000B2C21794460429F9
:102D100002D140B2C1178C4600226146944506DAC2
:102D20000A460021404291418C462D2102E02105B6
:102D300004D52B216A461173012103E0E10701D07C
:102D40002021F7E7029155E00A200AE0102008E070
:102D5000102000900021042004430191082703E083
:102D600008200021019100906002410F022907D044
:102D7000189A01CA189200229446032908D008E044
:102D80001898C01DC108C90005C91891944603E0F0
:102D900080B2042900D1C0B200210291210729D5B7
:102DA0001199702906D0009A1021019B4A401A43BC
:102DB00005D00EE040216A461173012108E061460A
:102DC000014306D030216A461173119951730221D3
:102DD0000291009A0821019B4A401A430AD1614698
:102DE000014301D1610705D530216A4611730121E4
:102DF0007F1E02911199582904D035A10E910DA979
:102E00000D910DE037A1F9E76146019B009AFDF7AE
:102E1000E9F90E9B8C469B5C0D9A521E0D92137025
:102E200061460143F0D10D9805A9081A20300190A0
:102E3000600703D501200004844300E001270198C6
:102E4000874201DD381A00E0002001990090411806
:102E5000029809180498401A0490E00306D4214609
:102E60001A9B199A049800F0B3F94519002706E057
:102E700003A81A9AC05D199990476D1C7F1C02988F
:102E80008742F5DBE0030CD521461A9B199A04987A
:102E900000F09EF9451904E01A9A302019999047DC
:102EA0006D1C0099481E00900029F5DC08E00D9883
:102EB0000D990078491C0D911A9A199990476D1C2B
:102EC0000199481E01900029F1DC63E10928010005
:102ED0003031323334353637383961626364656690
:102EE0000000000030313233343536373839414252
:102EF000434445460000000000F05AF94519761C8D
:102F00003078002800D0E2E528461BB0F0BD60070D
:102F100000D406271898C01DC108C90048680A686F
:102F20000831C30FDB071891190001D09CA108E0FC
:102F3000210501D59BA104E0E10701D09AA100E0A1
:102F40009AA1430011985B08109165280CD006DC0B
:102F5000452809D046281DD0472841D141E06628A0
:102F600018D067283CD13CE00021112F01DB112053
:102F700000E0781C0191009008A911A8FFF7E8FC77
:102F8000139905910021119A15927F1C12980197AF
:102F9000009150E00120C00703900120019008A992
:102FA000009711A8FFF7D4FC139A149905920022F8
:102FB000119B009212981593059A0192002901D055
:102FC000104602E0791C40180190381A01D501988A
:102FD00004E04042401E0090781C0190C01B02900B
:102FE00043E0012F00DA01270021112F01DD11201C
:102FF00000E038460191009008A911A8FFF7A8FC4D
:1030000013990591119A0021129815920091019738
:1030100021070CD40599B94201DB019900E0019127
:10302000012904DD159A491E515C302906D0B842A9
:1030300001DA011D05DA0121029115E00199491E0D
:10304000EDE7002805DC0099411800910199091A63
:1030500003E0019A411C914200DD01910099401A60
:10306000401C02900120C0070390200706D402995B
:103070000198814202DB0020C04302900020694693
:10308000C87707AF012103980337C907884224D0C6
:10309000022011902B201290039800280CDA404255
:1030A00003902D20129007E00A210398FDF71AF8EB
:1030B00030317F1E039039701199481E11900029FC
:1030C000F2DC03980028EFD1791E1298087030784E
:1030D000202108404530BF1E387006A8C01BC01D07
:1030E000039010980078002800D001200199411821
:1030F0000298C0170918039809180498401A401E2E
:103100000490E00306D421461A9B199A049800F013
:103110005FF8451910980078002803D01A9A199979
:1031200090476D1CE00324D521461A9B199A0498F8
:1031300000F04EF845191CE00098002807DB0099C4
:103140000598884203DD1598405C199901E01999AA
:1031500030201A9A904700986D1C401C00900298ED
:10316000401E0290002804D11A9A2E2019999047E7
:103170006D1C0199481E01900029DDDC05E03878BE
:103180001A9A7F1C199990476D1C0399481E039049
:103190000029F4DC21461A9B199A0498ACE6000039
:1031A0002D0000002B0000002000000000000000A7
:1031B000F8B5044600251E461746880404D405E0E9
:1031C00039462020B0476D1C641EF9D52846F8BD4D
:1031D000FFB50446002581B01E46C80301D530273F
:1031E00000E02027880404D505E038460399B0475D
:1031F0006D1C641EF9D5284605B0F0BD13B5044B0F
:10320000012269460348FEF7E3FE00981CBD00005A
:10321000FFFF00002C010020FEF7A8F9FEF7E2FFF7
:10322000FFF7F0FAFEF76AFFFDF76AFBFFF73EF8DB
:10323000FEF756FFFCE7000000000000000001025E
:10324000030406070809000000000102030400004F
:103250000D0A55415254205072696E7466204578AB
:10326000616D706C653A2072657461726765742077
:103270007468652043206C69627261727920707293
:10328000696E74662066756E6374696F6E20746F04
:103290002074686520554152540D0A00BC32000864
:1032A000000000203000000032290008EC32000845
:1032B00030000020C80500004229000800127A00F2
:1032C00000000000000002020000000000000000FA
:1032D00000000000000000000000000000000000EE
:0C32E000000000000000000000000000E2
:04000005080000B53A
:00000001FF
